{
  "_format": "hh-sol-artifact-1",
  "contractName": "Nexo",
  "sourceName": "contracts/nexo.sol",
  "abi": [
    {
      "inputs": [],
      "stateMutability": "nonpayable",
      "type": "constructor"
    },
    {
      "anonymous": false,
      "inputs": [
        {
          "indexed": false,
          "internalType": "address",
          "name": "sender",
          "type": "address"
        },
        {
          "indexed": false,
          "internalType": "uint256",
          "name": "amount",
          "type": "uint256"
        }
      ],
      "name": "Received",
      "type": "event"
    },
    {
      "inputs": [
        {
          "internalType": "uint256",
          "name": "amount",
          "type": "uint256"
        },
        {
          "internalType": "uint256",
          "name": "fee",
          "type": "uint256"
        }
      ],
      "name": "PlusFee",
      "outputs": [
        {
          "internalType": "uint256",
          "name": "",
          "type": "uint256"
        }
      ],
      "stateMutability": "pure",
      "type": "function"
    },
    {
      "inputs": [
        {
          "internalType": "uint256",
          "name": "amount",
          "type": "uint256"
        },
        {
          "internalType": "uint256",
          "name": "fee",
          "type": "uint256"
        }
      ],
      "name": "discountFee",
      "outputs": [
        {
          "internalType": "uint256",
          "name": "",
          "type": "uint256"
        }
      ],
      "stateMutability": "pure",
      "type": "function"
    },
    {
      "inputs": [],
      "name": "getNexoBalance",
      "outputs": [
        {
          "internalType": "uint256",
          "name": "",
          "type": "uint256"
        }
      ],
      "stateMutability": "view",
      "type": "function"
    },
    {
      "inputs": [],
      "name": "getStrategyEthBalance",
      "outputs": [
        {
          "internalType": "uint256",
          "name": "",
          "type": "uint256"
        }
      ],
      "stateMutability": "view",
      "type": "function"
    },
    {
      "inputs": [],
      "name": "getUserEthBalance",
      "outputs": [
        {
          "internalType": "uint256",
          "name": "",
          "type": "uint256"
        }
      ],
      "stateMutability": "view",
      "type": "function"
    },
    {
      "inputs": [],
      "name": "isshutDown",
      "outputs": [
        {
          "internalType": "bool",
          "name": "",
          "type": "bool"
        }
      ],
      "stateMutability": "view",
      "type": "function"
    },
    {
      "inputs": [],
      "name": "owner_withdraw",
      "outputs": [],
      "stateMutability": "nonpayable",
      "type": "function"
    },
    {
      "inputs": [],
      "name": "shutDownContract",
      "outputs": [],
      "stateMutability": "nonpayable",
      "type": "function"
    },
    {
      "inputs": [],
      "name": "strategyEthBalance",
      "outputs": [
        {
          "internalType": "uint256",
          "name": "",
          "type": "uint256"
        }
      ],
      "stateMutability": "view",
      "type": "function"
    },
    {
      "inputs": [],
      "name": "swapETHToUSDC",
      "outputs": [],
      "stateMutability": "payable",
      "type": "function"
    },
    {
      "inputs": [
        {
          "internalType": "address",
          "name": "",
          "type": "address"
        }
      ],
      "name": "userEthBalance",
      "outputs": [
        {
          "internalType": "uint256",
          "name": "",
          "type": "uint256"
        }
      ],
      "stateMutability": "view",
      "type": "function"
    },
    {
      "inputs": [
        {
          "internalType": "address",
          "name": "",
          "type": "address"
        }
      ],
      "name": "userUsdcBalance",
      "outputs": [
        {
          "internalType": "uint256",
          "name": "",
          "type": "uint256"
        }
      ],
      "stateMutability": "view",
      "type": "function"
    },
    {
      "inputs": [],
      "name": "witdrawFullStake",
      "outputs": [],
      "stateMutability": "payable",
      "type": "function"
    },
    {
      "inputs": [
        {
          "internalType": "uint256",
          "name": "amountEth",
          "type": "uint256"
        }
      ],
      "name": "witdrawPartialStake",
      "outputs": [],
      "stateMutability": "payable",
      "type": "function"
    },
    {
      "stateMutability": "payable",
      "type": "receive"
    }
  ],
  "bytecode": "0x6080604052661ff973cafa80006003556000600460006101000a81548160ff0219169083151502179055507307865c6e87b9f70255377e024ace6630c1eaa37f600560006101000a81548173ffffffffffffffffffffffffffffffffffffffff021916908373ffffffffffffffffffffffffffffffffffffffff16021790555073ad6d458402f60fd3bd25163575031acdce07538d600660006101000a81548173ffffffffffffffffffffffffffffffffffffffff021916908373ffffffffffffffffffffffffffffffffffffffff160217905550730a180a76e4466bf68a7f86fb029bed3cccfaaac5600760006101000a81548173ffffffffffffffffffffffffffffffffffffffff021916908373ffffffffffffffffffffffffffffffffffffffff160217905550737a250d5630b4cf539739df2c5dacb4c659f2488d600860006101000a81548173ffffffffffffffffffffffffffffffffffffffff021916908373ffffffffffffffffffffffffffffffffffffffff16021790555060036009556101f4600a55600860009054906101000a900473ffffffffffffffffffffffffffffffffffffffff16600b60006101000a81548173ffffffffffffffffffffffffffffffffffffffff021916908373ffffffffffffffffffffffffffffffffffffffff1602179055503480156101f857600080fd5b5033600460016101000a81548173ffffffffffffffffffffffffffffffffffffffff021916908373ffffffffffffffffffffffffffffffffffffffff160217905550612255806102496000396000f3fe6080604052600436106100e15760003560e01c8063954f13f21161007f578063bc5dfd5211610059578063bc5dfd52146102a0578063c9fc1c39146102dd578063da42485c1461031a578063e84b55b21461034557610121565b8063954f13f21461020d578063a7c161f114610238578063ad8f23911461027557610121565b8063562cb1f7116100bb578063562cb1f714610184578063645ab149146101af57806366e1478c146101b957806393705f32146101d057610121565b80630a6ff8d71461012657806324765eca1461015157806334ef39f11461016d57610121565b36610121577f88a5966d370b9919b20f3e2c13ff65706f196a4e32cc2c12bf57088f885258743334604051610117929190611a7c565b60405180910390a1005b600080fd5b34801561013257600080fd5b5061013b61034f565b6040516101489190611bec565b60405180910390f35b61016b60048036038101906101669190611830565b610395565b005b34801561017957600080fd5b506101826109ec565b005b34801561019057600080fd5b50610199610a35565b6040516101a69190611bec565b60405180910390f35b6101b7610a3f565b005b3480156101c557600080fd5b506101ce611081565b005b3480156101dc57600080fd5b506101f760048036038101906101f29190611760565b611148565b6040516102049190611bec565b60405180910390f35b34801561021957600080fd5b50610222611160565b60405161022f9190611aa5565b60405180910390f35b34801561024457600080fd5b5061025f600480360381019061025a919061185d565b611177565b60405161026c9190611bec565b60405180910390f35b34801561028157600080fd5b5061028a6111ba565b6040516102979190611bec565b60405180910390f35b3480156102ac57600080fd5b506102c760048036038101906102c29190611760565b6111c0565b6040516102d49190611bec565b60405180910390f35b3480156102e957600080fd5b5061030460048036038101906102ff919061185d565b6111d8565b6040516103119190611bec565b60405180910390f35b34801561032657600080fd5b5061032f61121b565b60405161033c9190611bec565b60405180910390f35b61034d611223565b005b60008060003373ffffffffffffffffffffffffffffffffffffffff1673ffffffffffffffffffffffffffffffffffffffff16815260200190815260200160002054905090565b6000803373ffffffffffffffffffffffffffffffffffffffff1673ffffffffffffffffffffffffffffffffffffffff16815260200190815260200160002054811115610416576040517f08c379a000000000000000000000000000000000000000000000000000000000815260040161040d90611b2c565b60405180910390fd5b6000600160003373ffffffffffffffffffffffffffffffffffffffff1673ffffffffffffffffffffffffffffffffffffffff1681526020019081526020016000205490506000600660009054906101000a900473ffffffffffffffffffffffffffffffffffffffff1690508073ffffffffffffffffffffffffffffffffffffffff1663095ea7b3600860009054906101000a900473ffffffffffffffffffffffffffffffffffffffff1660006040518363ffffffff1660e01b81526004016104df929190611a53565b602060405180830381600087803b1580156104f957600080fd5b505af115801561050d573d6000803e3d6000fd5b505050506040513d601f19601f820116820180604052508101906105319190611803565b610570576040517f08c379a000000000000000000000000000000000000000000000000000000000815260040161056790611b0c565b60405180910390fd5b8073ffffffffffffffffffffffffffffffffffffffff1663095ea7b3600860009054906101000a900473ffffffffffffffffffffffffffffffffffffffff16846040518363ffffffff1660e01b81526004016105cd929190611a7c565b602060405180830381600087803b1580156105e757600080fd5b505af11580156105fb573d6000803e3d6000fd5b505050506040513d601f19601f8201168201806040525081019061061f9190611803565b61065e576040517f08c379a000000000000000000000000000000000000000000000000000000000815260040161065590611b4c565b60405180910390fd5b6000600267ffffffffffffffff81111561067b5761067a611f83565b5b6040519080825280602002602001820160405280156106a95781602001602082028036833780820191505090505b509050600660009054906101000a900473ffffffffffffffffffffffffffffffffffffffff16816000815181106106e3576106e2611f54565b5b602002602001019073ffffffffffffffffffffffffffffffffffffffff16908173ffffffffffffffffffffffffffffffffffffffff1681525050600b60009054906101000a900473ffffffffffffffffffffffffffffffffffffffff1673ffffffffffffffffffffffffffffffffffffffff1663ad5c46486040518163ffffffff1660e01b815260040160206040518083038186803b15801561078557600080fd5b505afa158015610799573d6000803e3d6000fd5b505050506040513d601f19601f820116820180604052508101906107bd919061178d565b816001815181106107d1576107d0611f54565b5b602002602001019073ffffffffffffffffffffffffffffffffffffffff16908173ffffffffffffffffffffffffffffffffffffffff16815250506000600b60009054906101000a900473ffffffffffffffffffffffffffffffffffffffff1673ffffffffffffffffffffffffffffffffffffffff16634a25d94a86868533426040518663ffffffff1660e01b8152600401610870959493929190611c61565b600060405180830381600087803b15801561088a57600080fd5b505af115801561089e573d6000803e3d6000fd5b505050506040513d6000823e3d601f19601f820116820180604052508101906108c791906117ba565b90506000816001815181106108df576108de611f54565b5b602002602001015190506000826000815181106108ff576108fe611f54565b5b60200260200101519050610915826009546111d8565b6000803373ffffffffffffffffffffffffffffffffffffffff1673ffffffffffffffffffffffffffffffffffffffff16815260200190815260200160002060008282546109629190611e37565b92505081905550610975826009546111d8565b600260008282546109869190611e37565b9250508190555080600160003373ffffffffffffffffffffffffffffffffffffffff1673ffffffffffffffffffffffffffffffffffffffff16815260200190815260200160002060008282546109dc9190611e37565b9250508190555050505050505050565b3373ffffffffffffffffffffffffffffffffffffffff166108fc479081150290604051600060405180830381858888f19350505050158015610a32573d6000803e3d6000fd5b50565b6000600254905090565b60008060003373ffffffffffffffffffffffffffffffffffffffff1673ffffffffffffffffffffffffffffffffffffffff1681526020019081526020016000205411610ac0576040517f08c379a0000000000000000000000000000000000000000000000000000000008152600401610ab790611bac565b60405180910390fd5b6000600160003373ffffffffffffffffffffffffffffffffffffffff1673ffffffffffffffffffffffffffffffffffffffff1681526020019081526020016000205490506000600660009054906101000a900473ffffffffffffffffffffffffffffffffffffffff1690508073ffffffffffffffffffffffffffffffffffffffff1663095ea7b3600860009054906101000a900473ffffffffffffffffffffffffffffffffffffffff1660006040518363ffffffff1660e01b8152600401610b89929190611a53565b602060405180830381600087803b158015610ba357600080fd5b505af1158015610bb7573d6000803e3d6000fd5b505050506040513d601f19601f82011682018060405250810190610bdb9190611803565b610c1a576040517f08c379a0000000000000000000000000000000000000000000000000000000008152600401610c1190611b0c565b60405180910390fd5b8073ffffffffffffffffffffffffffffffffffffffff1663095ea7b3600860009054906101000a900473ffffffffffffffffffffffffffffffffffffffff16846040518363ffffffff1660e01b8152600401610c77929190611a7c565b602060405180830381600087803b158015610c9157600080fd5b505af1158015610ca5573d6000803e3d6000fd5b505050506040513d601f19601f82011682018060405250810190610cc99190611803565b610d08576040517f08c379a0000000000000000000000000000000000000000000000000000000008152600401610cff90611b4c565b60405180910390fd5b6000600267ffffffffffffffff811115610d2557610d24611f83565b5b604051908082528060200260200182016040528015610d535781602001602082028036833780820191505090505b509050600660009054906101000a900473ffffffffffffffffffffffffffffffffffffffff1681600081518110610d8d57610d8c611f54565b5b602002602001019073ffffffffffffffffffffffffffffffffffffffff16908173ffffffffffffffffffffffffffffffffffffffff1681525050600b60009054906101000a900473ffffffffffffffffffffffffffffffffffffffff1673ffffffffffffffffffffffffffffffffffffffff1663ad5c46486040518163ffffffff1660e01b815260040160206040518083038186803b158015610e2f57600080fd5b505afa158015610e43573d6000803e3d6000fd5b505050506040513d601f19601f82011682018060405250810190610e67919061178d565b81600181518110610e7b57610e7a611f54565b5b602002602001019073ffffffffffffffffffffffffffffffffffffffff16908173ffffffffffffffffffffffffffffffffffffffff16815250506000600b60009054906101000a900473ffffffffffffffffffffffffffffffffffffffff1673ffffffffffffffffffffffffffffffffffffffff166318cbafe58560008533426040518663ffffffff1660e01b8152600401610f1b959493929190611c07565b600060405180830381600087803b158015610f3557600080fd5b505af1158015610f49573d6000803e3d6000fd5b505050506040513d6000823e3d601f19601f82011682018060405250810190610f7291906117ba565b905060008160018351610f859190611e37565b81518110610f9657610f95611f54565b5b60200260200101519050610fac816009546111d8565b6000803373ffffffffffffffffffffffffffffffffffffffff1673ffffffffffffffffffffffffffffffffffffffff1681526020019081526020016000206000828254610ff99190611e37565b9250508190555061100c816009546111d8565b6002600082825461101d9190611e37565b9250508190555084600160003373ffffffffffffffffffffffffffffffffffffffff1673ffffffffffffffffffffffffffffffffffffffff16815260200190815260200160002060008282546110739190611e37565b925050819055505050505050565b600460019054906101000a900473ffffffffffffffffffffffffffffffffffffffff1673ffffffffffffffffffffffffffffffffffffffff163373ffffffffffffffffffffffffffffffffffffffff16146110db57600080fd5b600460009054906101000a900460ff161561112b576040517f08c379a000000000000000000000000000000000000000000000000000000000815260040161112290611b8c565b60405180910390fd5b6001600460006101000a81548160ff021916908315150217905550565b60016020528060005260406000206000915090505481565b6000600460009054906101000a900460ff16905090565b6000806111ae6103e86111a0856103e86111919190611e37565b8761162d90919063ffffffff16565b61164390919063ffffffff16565b90508091505092915050565b60025481565b60006020528060005260406000206000915090505481565b60008061120f6103e8611201856103e86111f29190611d56565b8761162d90919063ffffffff16565b61164390919063ffffffff16565b90508091505092915050565b600047905090565b600460009054906101000a900460ff1615611273576040517f08c379a000000000000000000000000000000000000000000000000000000000815260040161126a90611bcc565b60405180910390fd5b60035434116112b7576040517f08c379a00000000000000000000000000000000000000000000000000000000081526004016112ae90611b6c565b60405180910390fd5b6000600267ffffffffffffffff8111156112d4576112d3611f83565b5b6040519080825280602002602001820160405280156113025781602001602082028036833780820191505090505b509050600b60009054906101000a900473ffffffffffffffffffffffffffffffffffffffff1673ffffffffffffffffffffffffffffffffffffffff1663ad5c46486040518163ffffffff1660e01b815260040160206040518083038186803b15801561136d57600080fd5b505afa158015611381573d6000803e3d6000fd5b505050506040513d601f19601f820116820180604052508101906113a5919061178d565b816000815181106113b9576113b8611f54565b5b602002602001019073ffffffffffffffffffffffffffffffffffffffff16908173ffffffffffffffffffffffffffffffffffffffff1681525050600660009054906101000a900473ffffffffffffffffffffffffffffffffffffffff168160018151811061142a57611429611f54565b5b602002602001019073ffffffffffffffffffffffffffffffffffffffff16908173ffffffffffffffffffffffffffffffffffffffff16815250506000600b60009054906101000a900473ffffffffffffffffffffffffffffffffffffffff1673ffffffffffffffffffffffffffffffffffffffff16637ff36ab53460008530426040518663ffffffff1660e01b81526004016114c99493929190611ac0565b6000604051808303818588803b1580156114e257600080fd5b505af11580156114f6573d6000803e3d6000fd5b50505050506040513d6000823e3d601f19601f8201168201806040525081019061152091906117ba565b9050600081600183516115339190611e37565b8151811061154457611543611f54565b5b6020026020010151905061155a34600954611177565b6000803373ffffffffffffffffffffffffffffffffffffffff1673ffffffffffffffffffffffffffffffffffffffff16815260200190815260200160002060008282546115a79190611d56565b925050819055506115ba34600954611177565b600260008282546115cb9190611d56565b9250508190555080600160003373ffffffffffffffffffffffffffffffffffffffff1673ffffffffffffffffffffffffffffffffffffffff16815260200190815260200160002060008282546116219190611d56565b92505081905550505050565b6000818361163b9190611ddd565b905092915050565b600081836116519190611dac565b905092915050565b600061166c61166784611ce0565b611cbb565b9050808382526020820190508285602086028201111561168f5761168e611fb7565b5b60005b858110156116bf57816116a5888261174b565b845260208401935060208301925050600181019050611692565b5050509392505050565b6000813590506116d8816121da565b92915050565b6000815190506116ed816121da565b92915050565b600082601f83011261170857611707611fb2565b5b8151611718848260208601611659565b91505092915050565b600081519050611730816121f1565b92915050565b60008135905061174581612208565b92915050565b60008151905061175a81612208565b92915050565b60006020828403121561177657611775611fc1565b5b6000611784848285016116c9565b91505092915050565b6000602082840312156117a3576117a2611fc1565b5b60006117b1848285016116de565b91505092915050565b6000602082840312156117d0576117cf611fc1565b5b600082015167ffffffffffffffff8111156117ee576117ed611fbc565b5b6117fa848285016116f3565b91505092915050565b60006020828403121561181957611818611fc1565b5b600061182784828501611721565b91505092915050565b60006020828403121561184657611845611fc1565b5b600061185484828501611736565b91505092915050565b6000806040838503121561187457611873611fc1565b5b600061188285828601611736565b925050602061189385828601611736565b9150509250929050565b60006118a983836118b5565b60208301905092915050565b6118be81611e6b565b82525050565b6118cd81611e6b565b82525050565b60006118de82611d1c565b6118e88185611d34565b93506118f383611d0c565b8060005b8381101561192457815161190b888261189d565b975061191683611d27565b9250506001810190506118f7565b5085935050505092915050565b61193a81611e7d565b82525050565b61194981611eb3565b82525050565b600061195c601083611d45565b915061196782611fd7565b602082019050919050565b600061197f603083611d45565b915061198a82612000565b604082019050919050565b60006119a2601183611d45565b91506119ad8261204f565b602082019050919050565b60006119c5602483611d45565b91506119d082612078565b604082019050919050565b60006119e8601083611d45565b91506119f3826120c7565b602082019050919050565b6000611a0b604583611d45565b9150611a16826120f0565b606082019050919050565b6000611a2e605983611d45565b9150611a3982612165565b606082019050919050565b611a4d81611ea9565b82525050565b6000604082019050611a6860008301856118c4565b611a756020830184611940565b9392505050565b6000604082019050611a9160008301856118c4565b611a9e6020830184611a44565b9392505050565b6000602082019050611aba6000830184611931565b92915050565b6000608082019050611ad56000830187611940565b8181036020830152611ae781866118d3565b9050611af660408301856118c4565b611b036060830184611a44565b95945050505050565b60006020820190508181036000830152611b258161194f565b9050919050565b60006020820190508181036000830152611b4581611972565b9050919050565b60006020820190508181036000830152611b6581611995565b9050919050565b60006020820190508181036000830152611b85816119b8565b9050919050565b60006020820190508181036000830152611ba5816119db565b9050919050565b60006020820190508181036000830152611bc5816119fe565b9050919050565b60006020820190508181036000830152611be581611a21565b9050919050565b6000602082019050611c016000830184611a44565b92915050565b600060a082019050611c1c6000830188611a44565b611c296020830187611940565b8181036040830152611c3b81866118d3565b9050611c4a60608301856118c4565b611c576080830184611a44565b9695505050505050565b600060a082019050611c766000830188611a44565b611c836020830187611a44565b8181036040830152611c9581866118d3565b9050611ca460608301856118c4565b611cb16080830184611a44565b9695505050505050565b6000611cc5611cd6565b9050611cd18282611ec5565b919050565b6000604051905090565b600067ffffffffffffffff821115611cfb57611cfa611f83565b5b602082029050602081019050919050565b6000819050602082019050919050565b600081519050919050565b6000602082019050919050565b600082825260208201905092915050565b600082825260208201905092915050565b6000611d6182611ea9565b9150611d6c83611ea9565b9250827fffffffffffffffffffffffffffffffffffffffffffffffffffffffffffffffff03821115611da157611da0611ef6565b5b828201905092915050565b6000611db782611ea9565b9150611dc283611ea9565b925082611dd257611dd1611f25565b5b828204905092915050565b6000611de882611ea9565b9150611df383611ea9565b9250817fffffffffffffffffffffffffffffffffffffffffffffffffffffffffffffffff0483118215151615611e2c57611e2b611ef6565b5b828202905092915050565b6000611e4282611ea9565b9150611e4d83611ea9565b925082821015611e6057611e5f611ef6565b5b828203905092915050565b6000611e7682611e89565b9050919050565b60008115159050919050565b600073ffffffffffffffffffffffffffffffffffffffff82169050919050565b6000819050919050565b6000611ebe82611ea9565b9050919050565b611ece82611fc6565b810181811067ffffffffffffffff82111715611eed57611eec611f83565b5b80604052505050565b7f4e487b7100000000000000000000000000000000000000000000000000000000600052601160045260246000fd5b7f4e487b7100000000000000000000000000000000000000000000000000000000600052601260045260246000fd5b7f4e487b7100000000000000000000000000000000000000000000000000000000600052603260045260246000fd5b7f4e487b7100000000000000000000000000000000000000000000000000000000600052604160045260246000fd5b600080fd5b600080fd5b600080fd5b600080fd5b6000601f19601f8301169050919050565b7f617070726f7665206661696c6564203100000000000000000000000000000000600082015250565b7f596f752063616e206e6f74207769746864726177206d6f7265207468616e207760008201527f68617420796f75207374616b65642e2000000000000000000000000000000000602082015250565b7f617070726f7665206661696c6564203220000000000000000000000000000000600082015250565b7f4d696e696d756d2045544820616d6f756e742073686f756c64206265203e203060008201527f2e30303900000000000000000000000000000000000000000000000000000000602082015250565b7f416c72656164792073687574646f776e00000000000000000000000000000000600082015250565b7f43616e206e6f742077697468647261772e20596f7520646f206e6f742068617660008201527f6520616e792066756e6473206465706f736974656420696e207468652073747260208201527f6174656779000000000000000000000000000000000000000000000000000000604082015250565b7f536f7272792074686520636f6e74726163742069732073687574646f776e2e2060008201527f596f752063616e20776974686472617720796f7572206465706f73697473206260208201527f7574206e6577206f6e6573206172652064697361626c65642e00000000000000604082015250565b6121e381611e6b565b81146121ee57600080fd5b50565b6121fa81611e7d565b811461220557600080fd5b50565b61221181611ea9565b811461221c57600080fd5b5056fea26469706673582212207a83431b2ee825f78ba33a6f0c8fd4cc08f41ab93f26a357aef9b76486495cda64736f6c63430008060033",
  "linkReferences": {},
  "deployedLinkReferences": {}
}